:020000040800F2
:10000000D80D002049010008ED530008F143000815
:1000100000000000000000000000000000000000E0
:1000200000000000000000000000000075580008FB
:100030000000000000000000BD55000877580008CF
:100040005B0100085B0100085B0100085B01000820
:100050005B0100085B0100085B0100085B01000810
:1000600000000000A11800085B0100085B01000807
:100070005B0100085B0100085B010008ED58000807
:100080005B0100085B0100085B0100085B010008E0
:10009000000000005B0100085B010008F543000858
:1000A0005B0100085B0100085B0100085B010008C0
:1000B0005B0100085B010008000000000000000078
:1000C00000F002F800F030F80CA030C8083824180E
:1000D0002D18A246671EAB4654465D46AC4201D180
:1000E00000F022F87E460F3E0FCCB6460126334282
:1000F00000D0FB1AA246AB4633431847F47C0000FD
:10010000147D00000023002400250026103A01D3AE
:1001100078C1FBD8520700D330C100D50B607047BF
:100120001FB51FBD10B510BD01F046FA1146FFF70F
:10013000F7FF06F03DFF01F05EFA03B4FFF7F2FFB0
:1001400003BC01F08FFA00000748804707480047CA
:10015000FEE7FEE7FEE7FEE7FEE7FEE704480549A7
:10016000054A064B70470000EB580008C100000824
:10017000D8070020D80D0020D8090020D809002079
:10018000FEB5054610460C46184373D0AE468C4665
:100190000020AD1A01469C4167D366460027012422
:1001A0003D46B61A9D4102D313463A462124654680
:1001B00076462F04360C3E432D0CB61A9D4104D3CF
:1001C000150C1B042B4312041034654676462F068B
:1001D000360A3E432D0AB61A9D4104D3150E1B0262
:1001E0002B4312020834654676462F0736093E43F4
:1001F0002D09B61A9D4104D3150F1B012B43120183
:10020000241D65467646AF07B6083E43AD08B61ACC
:100210009D4104D3950F9B002B439200A41C65467F
:100220007646EF0776083E436D08B61A9D411AD30D
:1002300092185B41641C16E00018764665464941F9
:10024000B71A9D410191009009D36046B11A9841B7
:100250008E468446009801990025401C6941DD07BF
:1002600052082A435B08641EE6D57246634603B013
:10027000F0BDFFE700200146C046C0462A4623469F
:10028000F5E701E004C0091F0429FBD28B0701D563
:100290000280801CC90700D00270704700290BD073
:1002A000C30702D00270401C491E022904D38307F1
:1002B00002D50280801C891EE3E70022EEE70022BF
:1002C000DFE7002203098B422CD3030A8B4211D3B0
:1002D00000239C464EE003460B433CD400224308D7
:1002E0008B4231D303098B421CD3030A8B4201D3C7
:1002F00094463FE0C3098B4201D3CB01C01A52415F
:1003000083098B4201D38B01C01A524143098B42AE
:1003100001D34B01C01A524103098B4201D30B0197
:10032000C01A5241C3088B4201D3CB00C01A5241BC
:1003300083088B4201D38B00C01A524143088B4281
:1003400001D34B00C01A5241411A00D2014652411A
:10035000104670475DE0CA0F00D04942031000D339
:100360004042534000229C4603098B422DD3030A8E
:100370008B4212D3FC22890112BA030A8B420CD39E
:10038000890192118B4208D3890192118B4204D3C7
:1003900089013AD0921100E08909C3098B4201D347
:1003A000CB01C01A524183098B4201D38B01C01A81
:1003B000524143098B4201D34B01C01A52410309F8
:1003C0008B4201D30B01C01A5241C3088B4201D3A7
:1003D000CB00C01A524183088B4201D38B00C01A54
:1003E0005241D9D243088B4201D34B00C01A52412B
:1003F000411A00D20146634652415B10104601D3B8
:100400004042002B00D54942704763465B1000D341
:10041000404201B50020C046C04602BD704770474B
:10042000704700000246C80FC00781434B0030B53B
:100430004B405B009B0D20D01923DB06C91801231C
:100440001B05994220DB0324A40704251346AB4077
:100450000BD3002B04D1EB0613409B00E34204D4E2
:1004600001246407002312195941FF231B059942F7
:100470000BD2C9000143500F09E0CB0204D5014360
:100480000803024305D0054830BDFF21C9050843D4
:1004900030BD084607210905884330BD0000C07FF4
:1004A000F0B50C46871A9C410D46861A9D4103D231
:1004B000C01BA141D21963410D0D1F0DC94EEC1B8C
:1004C000AE435CD07F057F0D0026002F51D02D0557
:1004D000AC46A943DD020123ED0A1B051D43202381
:1004E0001B1B24D41746E740381871412F46E740BC
:1004F000CC199D402818314661410C0D27D161442B
:100500009A4013D50023401C594152000ED1400897
:10051000400001224B005205D34207D3052040077B
:10052000C14201D5B04900E0B0493046F0BD6B0092
:10053000002A00D001229A181F23203C1B1B01D542
:10054000002302E0E540281871410C0DD7D00124AA
:1005500024050919C407CD0740084908E40F2843BA
:100560006144002CD5D00024401C61419A40D0D178
:10057000CDE76A05520DD9D1C90FC907D5E79C4D02
:100580004E00002801D0012400E0002434195F004F
:10059000002A01D0012600E00026BE19954FAC428A
:1005A0000CD8AE420AD8B44206D001256D05EC4203
:1005B000BCD010461946F0BD9942FCD00020394607
:1005C000F0BDF0B51FB40C460F46811A9F41254679
:1005D000861A9D4106D20125ED076F40401ABC41A5
:1005E00052187B41210D1E0D8D1BAC467D4D8D4358
:1005F0007ED075056D0D7CD00D05AE46AC431B035A
:100600001B0B794D52429D41202366469B1B14D300
:100610001746F740381800260090744160462F4670
:100620000741E41900989D402818664116D4714688
:1006300071189A4025D5012320E093182A466A4173
:100640005200002B00D0521C1E23203E9B1B002B6F
:1006500061DD3541EE1728186641E8D5001876416E
:100660005B1C9A4000D3401C4B05F3181524E34053
:1006700010D3002B52D071467118D30FC01802D37B
:10068000491C05B0F0BD0123DB079A42F9D14008AF
:100690004000F6E701225205B21801D1002853D0DC
:1006A0000123CC0ADB029943891E002A08D1020CDF
:1006B00003D0020C0004103902E002460020203969
:1006C0000023550B05D112020823550B01D152010D
:1006D0000D23550C01D112011B1DD50C01D1920027
:1006E0009B1C150D01D152005B1C2025EE1A01E068
:1006F0002CE022E00546F54015439840CA1AE10770
:1007000069181305C918002ABBDA03204007081826
:10071000C10FC9070FE071466118B2E7F107400841
:100720000843711071444A000CD001235B059A42C2
:10073000A7D2C90FC9070020A3E74905490D26D153
:10074000002001E00028F4D100219AE7284D66003E
:10075000002801D0012100E0002171185F00002A6B
:1007600001D0012600E00026BE19224FA94210D870
:10077000AE420ED8B14208D001256D05E94206D03F
:100780001946A802414010467BE79C4201D0214611
:1007900077E70020394674E710B50C465C4005D574
:1007A0000124E4076340FFF70CFF10BDFFF778FE5C
:1007B00010BD30B40C465C4004D50124E40763400E
:1007C00030BC6DE630BCFCE670B50124E407614046
:1007D0000D465D4002D4FFF763FE70BD6340FFF736
:1007E000F0FE70BDFF0700000000F0FF0000F07F8A
:1007F0000000E0FF0000F87FF0B5F94D0C091E097C
:100800002C402E402F468BB0A7437DD0B543FCD063
:10081000002E7AD0002CFCD00D465D40ED0F254314
:10082000AC1BFF25AD0464190894C502440DC90230
:100830002143500DDC0204430120C007014304435F
:10084000D2020191200C110C00958C460104234624
:100850008B430A9161460904E24D8A430991010ADA
:100860007D4449198039097805464D4301266D18A4
:10087000F605751B6943C90C640B891C4C4364184D
:10088000B5012C1B250C2E04B4434C434D43210CC5
:10089000691889090591009DE90701D00121C9075F
:1008A00004912C4601996708CD072F434C08059DFC
:1008B000E10B4D432D0C29466646754302950D46C6
:1008C00045432E46029D7D1BB44100950D465D4378
:1008D00001942C0C2F040D465543AE462D0C3D4380
:1008E000029503947546049C2D04641B049406D25F
:1008F000029C039D641C002675410395029401AC83
:1009000070CC009F7D1B01E03EE162E1B44109042F
:100910000095079101940599A4086143090C0C46C0
:100920004443650BE7040C4666467443A646640BD5
:100930003C43039502947446049DE4042C1B0494E8
:1009400006D2029C039D641C002675410395029407
:1009500001AC70CC009F7D1BB44101940C465C43FC
:100960000095650FE7000C465443A646640F3C43D0
:10097000039502947446049DE4002C1B049406D253
:10098000029C039D641C002675410395029401ACF2
:1009900070CC009F7D1BB441AE09AF06049DC90019
:1009A000AD092F43049DA406AD060495079D34436D
:1009B00069180791059DE10B4D432D0C29466646AC
:1009C000754302950D4645432E46029D7D1BB4415D
:1009D00000950D465D4301942C0C2F040D465543A4
:1009E000AE462D0C3D43029503947546049C2D04A0
:1009F000641B049406D2029C039D641C002675416E
:100A00000395029401AC70CC009F7D1BB44101940E
:100A10008C050694079C890A611800950791019C32
:100A20000599A4086143090C0D464543680BEF0482
:100A30000D46644665436C0B3C43049FED047D1BEF
:100A4000AC4602D20025641C6841009E019D371B04
:100A500085410846584301950C46460FC50054434E
:100A6000600F28436546E4002C1B02D20025401C81
:100A70006E41019D3F1AB5412846BD0980062843B5
:100A80008446A009BF064E020699A40676180743BD
:100A9000079D002068410A99079019430020099B8F
:100AA00000906046FF1913434041E20F64003A434F
:100AB000A4460446D71A8C41A04203D901200090D5
:100AC00020463A46C70F941840416246D20F22434F
:100AD000644664000494009CBE466400D71AA44691
:100AE000044602978C417746002F01D1A04204D9D9
:100AF0006046401C8446029A2046C40FA6469418BD
:100B00004041049A0546D20F224364466400D31A3A
:100B10008D417146002901D1A84202D928461A46C2
:100B2000641C10430122002800D0164361020020FB
:100B3000079B891904465C410223002C02DB4918FB
:100B400013466441089DCE0A2D145D194B056705B7
:100B5000E10A2C050D1908993E43C9076940002B8D
:100B600008D0934006D30022761C5141002B01D1BE
:100B7000760876001C4A002D43DB154241D0AA437B
:100B80003FD030460BB0F0BD06180D464D41174C16
:100B90007642AC411AD395181C465C41134A6D420B
:100BA000A24113D3012252054C00D4420AD15C0069
:100BB000D4420BD04B4002D592021143E2E74900E8
:100BC0004908DFE75940C90FC90718E00020084964
:100BD000D8E7054801420DD10342F7D0F2E7000003
:100BE0000000FF072C7400000000F07F0000E0FF11
:100BF0000000F87F114859400143C01241400020D5
:100C0000C0E70123089A9B069A4205DC032252079B
:100C10008918C90FC907B5E7052252078918074A7D
:100C20001143D2125140ADE770B515461C4602463D
:100C30000B4628462146FFF7DFFD70BDFFFFFF7F13
:100C400030B50346CA02400D1043164D164C0A1526
:100C500002D02043002A06DBAA1A002A12DDD04067
:100C6000FF2A0BDC30BD5205520D01D14000400877
:100C7000AA1A07D4D0404042FF2A01DD002030BD2F
:100C80000028FCDD4A00002B01D0012000E00020FC
:100C9000101801225205D042F0D8C817C043604056
:100CA00030BD00001E040000000000800346CA02A0
:100CB000400D10B510430A1504D00124E407204369
:100CC000002A05DB0A4CA21A04D4D040FF2A00DD1A
:100CD000002010BD4A00002B01D0012000E00020C0
:100CE000101801225205D042F2D8C817C04310BDD7
:100CF0001E0400001F22030C02D10F22000402D0A8
:100D0000030E03D004E00020014670470002083AB9
:100D1000030F01D10001121F830F01D18000921E29
:100D2000002801DB4000521E120551184205C01276
:100D3000411810467047C10FC90700D04042012238
:100D400092071143D6E701218907D3E7F0B58B4C11
:100D50000F09254689B0BD437BD01D092646AE4309
:100D6000FAD00E465E402740F60F3E43254071D034
:100D700024012142FBD0FF24AD19A4042D1B0395AF
:100D800001252D05DB02DB0AC9022B43C90A2943D1
:100D90001E010901040F130F050121431701880BE0
:100DA000820391432D098C46A90B1E438A03954368
:100DB000B30B9A0396433F09BA0B9403A7430296D9
:100DC0002E467E430497B6464E19D7190C46019617
:100DD000544305977E43371B7646BF1B3601B64604
:100DE000BE0B361900967646BC043719009C01D319
:100DF000641C00946400002F01D001263443029E3D
:100E0000049F754366467E430496760034196E004F
:100E100034190094029C019E1C196643751BAE4652
:100E2000069465464519059C05956C4359437546DE
:100E30000891691A0191049E01465143A41B049133
:100E4000611A009C0791E10605D061090122114356
:100E500002E072E06EE06109089D00272C0A2D0671
:100E60006918049D7C412A0A2D066918019D62417A
:100E7000AC0DAD026D185441079A910D92025519AF
:100E80006141029A644658435443069B059A5A436B
:100E9000121A131B9A0E9B015B187A41010B000575
:100EA000C3185141220A200644195A419A4200D2DD
:100EB000491C01204002814203D315230226F64338
:100EC00002E014230326F6432020C51AA940174642
:100ED000AF40DA400A4320460399D84009147318FA
:100EE00019055118039A3843D2075140AC4009D034
:100EF0000122944006D30022401C5141002C01D114
:100F0000400840001E4A934212D3012203989206E1
:100F1000904207DB0520400709181A480143C01218
:100F2000414004E0032040070818C10FC907002012
:100F300009B0F0BD0020F107FAE705180C464C4156
:100F400011486D42A04115D394181A465A410E48D3
:100F5000644290410ED301204A004005824209D3E9
:100F60005A00824206D35940C90F084AC9070020D7
:100F70001143DDE700200649DAE700000000FF0723
:100F8000FE070000FFFFFF7F0000E0FF0000F07F92
:100F90000000F87F0121C9050123411842001B060A
:100FA000D3185B0E0AD0C1100722D2068918400759
:100FB0005242D14201D5520089187047090208D522
:100FC0000146002A03D0C10FC90700207047104610
:100FD0007047420202D000200249704707210905EC
:100FE0000143F4E70000F87FF0B5FF252D04C609A2
:100FF000C209FF2704462E400137CB093E43484033
:101000002A402B400746002A6BD0002B69D0AA4209
:1010100067D0AB4265D0002800DA32460125ED05E5
:1010200029432C4309022002090AD21A4B0C7F24BF
:10103000E31A434C000A7C44E35C7D242404121927
:1010400014145B00A218884201D3521C00E0400037
:1010500049420C465C4324115C43DB016415E318F0
:10106000040A5C43C502200D0C4644436419250A5A
:101070005D432303EC0C0D46654300030019EB1898
:101080004C42A34201D35B18401CD4052018002B0E
:1010900007D05B00C91804D3401C002901D14008C7
:1010A00040003F2189048A4209D3002A08DC110646
:1010B000090F04D0032149074018C00FC007F0BD35
:1010C00001224100120689187F2252069142F6D26F
:1010D00005214907C84201D59010F0BDFF20C00589
:1010E000F0BD002F00DA32461648AA4207D2AB42C2
:1010F00005D21902090E17D0F80FC007F0BDFF2561
:1011000063002D06AB42F9D84900A942F6D8AB429C
:1011100001D1A942F2D0A94201D1002101E0610030
:101120004908D0050843F0BD1102090EFBD0FF208D
:101130000243D005F0BD0A460146104654E70000C0
:10114000D66C00000000C07F10B501469E2400024E
:10115000CA15A307002A02D01843002A04DBA21AEA
:10116000002A0CDDD04010BD1206120E01D1400045
:101170004008A21A03D4D04040420028F3DDFF22E9
:1011800048001206904201D9002010BDC817C04384
:10119000584010BD0102C21504D00123DB071943DA
:1011A000002A0ADB9E239A1A02D40846D0407047D0
:1011B000FF2241001206914201D900207047C0175A
:1011C000C04370471F22030C02D10F2200041CD021
:1011D000030E01D10002083A030F01D10001121FD2
:1011E000830F01D18000921E002801DB4000521EB7
:1011F000D2055118021251181922904004D3491CEB
:10120000002801D14908490008467047C10FC907A5
:1012100000D04042012292071143D3E70121890700
:10122000D0E7000010B5FF22C30D134009D05A408B
:1012300007D0914205DA5C42A14202DDC9050818D7
:1012400010BDC40FE407002B06D0002A06D00029E9
:1012500002DBFF20C0050443204610BD4102FCD044
:10126000004810BD0000C07F10B500F043F90068D1
:1012700010BD10B5044600F03DF9046010BD00003B
:10128000F8B5224C4E00069DA6420AD8A64201D1CE
:10129000002806D15E00A64203D8A6420AD1002A41
:1012A00008D00D24240425422CD02946002000F02B
:1012B00025F9F8BD0C461C430CD4994202D0EFF33B
:1012C0000080F8BD904202D0EFF30080F8BDEFF34C
:1012D0000080F8BD09242407E5008B4206D0EFF317
:1012E0000080A043591A06D2284304E0101A05D3FF
:1012F000EFF30080A04380F30088F8BDEFF3008097
:10130000A043F1E7009500F011F9F8BD0000E0FFFF
:10131000F0B55B4E0C093546A54377D01D0937461D
:10132000AF4373D0354034402F46002901DA0526FB
:101330003543002F6BD0534E314269D0DE0201237A
:10134000C9021B05C90AF60A19431E431B11AC4604
:10135000EB1A9C4246DD01273F04E51B801AAC4690
:10136000B14105D50D4600214042A94101256B4000
:10137000CD022D0F05D0CD02EBD400184941E41B5E
:10138000F9E749004908050B0D4303D10525000580
:10139000AD04641B002904D1010B05250005AD0433
:1013A000641B00254F0901D1090410254F0B01D101
:1013B000090208354F0C01D109012D1DCF0C01D1B7
:1013C0008900AD1C0F0D01D149006D1C2F04E41BD9
:1013D0000746AF40BE4620277D1BE8400143AC4690
:1013E0007046B6E74D00054329D025141F14BD42B1
:1013F00016DB05460F46554077403D4309D00D4664
:10140000871AB5410CD392187641A4E719E034E06D
:101410002FE06246120C250C954201D10122534067
:1014200001252D04621B12018918DA075140AC42D4
:1014300022DA032040070818C10FC9071BE058072C
:10144000FAE706180D464D410F4C7642AC4114D3D5
:1014500094185B410C4A64429A410ED30A0DD24360
:1014600052050AD001235B05DA4205D34A00024344
:1014700002D0C90FC9070020F0BD00200349F0BD0C
:101480000000FF070000F07F0000E0FF0000F87F91
:1014900010B5FF231B0644009C421DD84C009C4203
:1014A0001AD80346124A0B4307D4401A02D3EFF36B
:1014B000008010BDEFF3008010BD081A06D2EFF3D4
:1014C000008001219043C907084302E0EFF3008048
:1014D000904380F3008810BD0D231B041A4204D0F2
:1014E0001146002000F00AF810BD00F059F810BDB8
:1014F000000000900048704778070020C80212D50D
:101500004803400F002804D0C803C043012188408D
:101510007047EFF300800001000903210907084329
:1015200080F30088704700207047000010B500204D
:101530000249029A00F067F810BD00000000F87F31
:1015400070B505464800440D124B0020002C0AD00F
:10155000634008D09A4206DA6642B24203DD1205C1
:101560004019514170BD002C08D0002B09D0C90F83
:10157000C907002AF6DB084A114370BDC90FC90725
:1015800070BD28460A03104302D00020034970BDF5
:10159000284670BDFF0700000000F07F0000F87FC4
:1015A00010B5024800F02FF810BD00000000C07F09
:1015B00000487047780700207546FFF7F9FFAE46F0
:1015C000050069465346C008C000854618B020B5DE
:1015D000FEF7C4FD60BC00274908B6460026C0C51A
:1015E000C0C5C0C5C0C5C0C5C0C5C0C5C0C5403DDB
:1015F00049008D46704710B50446C046C046204697
:10160000FEF79BFD10BD10B50C461107090F092907
:1016100004D00A290AD008290CD104E01146082078
:10162000FFF76CFF06E0510606D501E0510601D533
:101630000120C007214610BDD10607D501010909C7
:10164000CC084907000E0006044309E0410F2002C0
:101650004907000A0143200E00061D22D141014323
:101660000846E7E701491820ABBEFEE72600020066
:10167000704770B58D180478401CA207920F01D1F5
:101680000278401C231106D10378401C03E0067841
:10169000401C0E70491C521EF9D1002B15D0027847
:1016A0000C2634408A1A401C0C2C03D0A401121BB7
:1016B0009B1C08E004782402121B401CF8E71478F5
:1016C0000C70491C521C5B1EF9D5A942D3D30020D3
:1016D00070BD10B5846AA16D502211420DD1A06D6C
:1016E000012149020843A065206803F030FB00286F
:1016F0001BD0A07E002807D017E0A16DC90624D515
:10170000204600F03BFA10BD2068016809070CD59F
:1017100003F019FB0146012000290AD0A16D202207
:101720001143A165E16D0143E165204600F024FA13
:1017300010BD21684A680C239A434A60A16DFF22BC
:10174000013291430143A165EFE7216D496B884761
:1017500010BD10B5806A816D402211438165C16D55
:1017600004221143C16500F009FA10BD10B5806A6A
:1017700000F003FA10BD0000F8B504460020009008
:10178000206803F0DCFA002845D120688168234AEC
:1017900010261140002930D18168D5432940491CC9
:1017A00081601F48006807218905084000020AD5AA
:1017B0001D481C490068FEF784FD401C00E0401EE7
:1017C00000900028FBD1607E012824D000F00CFEA0
:1017D00007461BE003F0B3FA002804D120688168B3
:1017E0002940491C816000F0FFFDC01B02280DD973
:1017F00020680068C043C00708D0A06D3043A065D2
:10180000E06D01210843E0650846F8BD20680168E5
:10181000C943C907DED10020F8BD000017000080D1
:1018200008270140400D03003000002070B5002063
:10183000194CFF26A061E0610546F536206220685C
:1018400004F06AFDA16905F0BDFEA061606804F0C6
:1018500063FDE16905F0B6FEE061A06804F05CFD9F
:10186000216A05F0AFFE2062012000F085FC6D1CAE
:10187000B542E4DB094DA0692946FFF7B5FBA0613D
:101880002946E069FFF7B0FBE0612946206AFFF7CF
:10189000ABFB206270BD00009C0000200000FA43FA
:1018A00010B5024800F074FB10BD00009004002049
:1018B00010B50446006C0949800880004018606437
:1018C000207814210838FEF7FCFC04498031A1641B
:1018D000C106C90E01208840E06410BD0008024026
:1018E0000179084B8906890E8A00D2180265054ADB
:1018F0004432491E42658A07920F01219140816559
:1019000070470000FC080240F0B5846CC56C65604F
:10191000046D002C02D0446D856D65600B4C6568CC
:10192000066C1C273E400127B7403D4365600468B4
:1019300063608368102B036803D099600068C260FD
:10194000F0BD9A600068C160F0BD00000000024078
:1019500072B6FEE7F8B50027064604464036009703
:10196000307D0D4601280FD001203075206803F02E
:10197000EAF900280AD0A06D20210843A0650127BC
:10198000002030753846F8BD0220F8BD686802288E
:101990007ED001222169D207914202D0121D9142CC
:1019A00006D120682968826A4903490B0A436EE020
:1019B000C206D20E0F20216E904081432868430357
:1019C00002D0C3074BD102E04000C00E48E08307BD
:1019D00001D5012044E0430701D5022040E0030780
:1019E00001D503203CE0C30601D5042038E083067E
:1019F00001D5052034E0430601D5062030E003067A
:101A000001D507202CE0C30501D5082028E0830577
:101A100001D5092024E0430501D50A2020E0030573
:101A200001D50B201CE0C30401D50C2018E0830471
:101A300001D50D2014E0430401D50E2010E003046D
:101A400001D50F200CE0C30301D5102008E083036B
:101A500001D5112004E0400301D5122000E0002050
:101A60009040014321666968E2698808401C904201
:101A700010D820682B68826A9C46C906C90E0F23BD
:101A80008B409A4363469B001B0F8B401A4300E038
:101A90003BE082622168AB6828684A6900028243A1
:101AA00018404001400902434A612868002800DBD1
:101AB00066E72B4A116807239B051940294B98427A
:101AC00014D10B0212D4C0020143104603F047F9AF
:101AD000264825490068FEF7F4FB0C21401C4843CA
:101AE00000E0401E00900028FBD149E7204B9842BF
:101AF00003D1CB0101D4800205E01E4B9842D7D11F
:101B00004802D5D45802014325E001212069C907C4
:101B1000884202D0091D884206D120682968826A5D
:101B20004903490B8A43826228680028C0DA0C4ABC
:101B3000116807239B0519400A4B984201D1C00246
:101B400008E00B4B984201D1800203E0094B984218
:101B5000AED140028143104603F001F910E70000C6
:101B600008270140001000B0400D030030000020A5
:101B7000004000B8002000B4704770477047000074
:101B8000FEB50027044601973E46029700970028BD
:101B900005D02546A06D2035002802D007E00120A1
:101BA000FEBD204600F0FCF8E6655420065520688E
:101BB0008168C900C90F12D18168724A114001229F
:101BC00012071143816071486F490068FEF779FB85
:101BD0004000801C00E0401E00900028FBD12068DF
:101BE0008168C900C90F08D1A16D10221143A165F8
:101BF000E16D01221143E165174603F0A4F8A16DE0
:101C0000C90601D4002804D0A06D10210843A065A6
:101C1000B4E0A06DFF210131884302210843A06593
:101C2000206803F08CF800286DD1217EA06889031C
:101C30000843617ECA03A17E4B031A431043226B03
:101C4000002A01D0012212031043E26810432269E6
:101C5000002A02DA5200520801E001225205104324
:101C60002A7B52001043019A10432A78012A09D195
:101C7000002922D0A16D20221143A165E16D01222E
:101C80001143E165616A002906D0FF23C133194081
:101C9000A26A0143104608432168CA683C4B1A40B7
:101CA0000243CA606168029A890F8907E06C0A439F
:101CB00010432A7F012A04D00CE0012109040843C3
:101CC000E0E7636C226C491C1A43A36C0B4311467A
:101CD0001943084321680A692E4B1A4002430A61DE
:101CE00003216068890788420DD0590788420AD0CD
:101CF0004900884207D0284A91680F239B049943E2
:101D00001840014391600021626B206803F02EF8B7
:101D10002249A26B206803F029F80F202169C043F3
:101D200000291CD00122520591420AD121688A6AF9
:101D3000227F9200121FD206D20E9040226E1043D4
:101D4000886220684069616B4007400F88420BD170
:101D5000E665A06D80088000401CA0650FE021684A
:101D60008A6A02438A62ECE7A06D0221884310214F
:101D70000843A065E06D01210843E065012738466E
:101D8000FEBD0000E8FFFF7F400D03003000002093
:101D90000102FEFF02FCFF1F0027014004FFFF07B6
:101DA00070B590B0064614210AA8FEF788FA2821DB
:101DB0006846FEF784FA24493068884241D1012000
:101DC0008003002500900795684600F00BFF00286F
:101DD00001D0FFF7BDFD1D480268012109050A4336
:101DE0000260006808400F9018484038416B01229B
:101DF00011434163406B0AA910400F9038200A90AC
:101E000003200B9005200C95000700F031FA114CCF
:101E10000F482060A5600520E5606060802020619B
:101E2000400060618000A0612020E061000220622B
:101E3000204600F009F9002801D0FFF789FD34653C
:101E4000A66210B070BD00000024014040100240A6
:101E50000800024090040020F7B50446006802F034
:101E600072FF002845D125464035287D012840D005
:101E700001272F752068C1681F4EC9070CD102F0D9
:101E80005EFF002804D0206881683140891C816091
:101E90002068C1683943C1602046FFF76DFC002807
:101EA00026D1A06D15490840FF2101310843A065E6
:101EB0000020E065226D1249D162226D1149116343
:101EC000226D1149516322681C2111602875206818
:101ED00041681022114341602168206D4031029B0E
:101EE000019A00F003F921688A683240121D8A6065
:101EF000FEBD0220FEBD0000E8FFFF7FFEF1FFFFF8
:101F0000D31600086D17000853170008F8B5002411
:101F1000024620325179022903D00421C1630124F1
:101F20002DE001680B680E25AB430B6001680B6860
:101F30005B085B000B60416C0B68FF250135AB4310
:101F40000B6010494D68066C1C231E4001231F4680
:101F5000B7403D434D60816CC56C4D60016D0029FB
:101F600006D00E681D02AE430E60416D856D4D605A
:101F7000537100211171816B002900D088472046E0
:101F8000F8BD00000000024020304079704700009A
:101F9000F0B42C490C6802681368056C1C273D409E
:101FA0000426AE40264211D05E070FD513689B066B
:101FB00003D4146804239C4314604B68046C04220B
:101FC0003C40A24013434B60016B1CE00227AF4032
:101FD000064627402036002F19D09F0717D51368D3
:101FE0009B0605D413680A24A3431360012272716F
:101FF0004B68046C1C2214400222A24013434B6025
:1020000000213171C16A00291AD0F0BC08470827A5
:10201000AF40274214D01B0712D513680E24A343E8
:1020200013604B68046C1C22144001221546A54025
:102030002B434B60C263727100213171416BE2E747
:10204000F0BC70470000024070B504003FD0254846
:10205000256814212818FEF734F980002064022036
:1020600026462036707128681F4908402860E168BC
:10207000A06862690843216911430843A1690843C4
:10208000E1690843216A084321680A68104308602F
:102090002046FFF70DFC0121A06889030025884236
:1020A00000D165602079616C8006800E0860A06CAC
:1020B000E16C41606068401E03280AD82046FFF7A3
:1020C0000FFC206D0560606DA16D416004E0012092
:1020D00070BD25656565A565E56301207071357185
:1020E000002070BDF8FFFDBF0F80FFFFF8B504466C
:1020F0008C4620300179002501290BD0012606717C
:1021000041790027012907D08021E163077101256A
:102110002846F8BD0220F8BD02214171E76320681E
:10212000016849084900016061462046FFF7ECFB61
:10213000206B00282068016801D00E2205E00422EF
:1021400091430160206801680A2211430160606CBC
:102150000168CA03074902D502680A430260206D7C
:10216000002802D002680A430260206801683143F7
:102170000160CDE70001000070B5044600F034F9BD
:102180000546601C02D004480078241800F02CF9A1
:10219000401BA042FAD370BD24000020F0B50023FC
:1021A0005AE001249C4022460A4054D09E082C4DFF
:1021B000B60075192F6EAC469D07EE0E0F25B54083
:1021C000AE463D4005273F07B84201D100270FE04A
:1021D000244FB84201D101270AE0234FB84201D170
:1021E000022705E0214FB84201D1032700E005276F
:1021F000B740AF4214D11A4E8036356895433560EA
:10220000756895437560164E7568954375603568B9
:102210009543356065462D6E724695436246156658
:1022200005685E000322B24015430560DD08AD007D
:102230002D182E6AAC465D07EF0E0F25BD40AE434C
:1022400065462E628568954385604568A54345606F
:10225000C4689443C4605B1C0A46DA40A1D1F0BD57
:10226000001802400004005000080050000C00500C
:10227000F0B5002303249AE02A4601259D402A4018
:102280007ED00E79B607B60F012E01D0022E16D1E0
:1022900086682746B4465E00B646B7406646BE43EB
:1022A000B446CF687646B74066463743876046688F
:1022B000AE430D79ED06ED0F9D40354345600D7938
:1022C000ED43AD0708D0C5685F002646BE40B54364
:1022D0008E68BE402E43C6600D79AD07AD0F022D4E
:1022E0000ED1DD08AD002D18AC462D6A5E07F60E46
:1022F0000F27B740BD430F69B7402F4365462F6294
:1023000005685F002646BE40B5430E79B607B60F96
:10231000BE402E4306604D68AD03AD0F46D09E080B
:10232000264DB6007519AC462D6E9E07F60E0F278A
:10233000B740BD4305273F07B84201D100270FE052
:102340001F4FB84201D101270AE01E4FB84201D108
:10235000022705E01C4FB84201D1032700E0052702
:10236000B7402F43154D664637662D684E68954336
:10237000F60200D51543114F3D607D68954300E09E
:1023800014E04E68B60200D515437D600B4D8035D4
:102390006E684F689643BF0300D516436E602E6883
:1023A0004F689643FF0300D516432E605B1C0A68F6
:1023B0001546DA4000D05FE7F0BD0000001802408B
:1023C0000004005000080050000C00504269134601
:1023D0000B401B0491430B4383617047002A01D0DB
:1023E00081617047816270470148806870470000D2
:1023F0002400002070B5024640325378202B1CD1B7
:102400001378012B19D0012313702424547004680D
:1024100025689D432560046825681E03B543256033
:10242000046825680D432560006801681943016050
:10243000202050700020107070BD022070BD70B55B
:10244000024640325378202B1BD11378012B18D031
:10245000012414702423537003681D68A5431D6074
:1024600005682B680F263602B34309021943296019
:102470000068016821430160202050700020107026
:1024800070BD022070BD704770B501256D06274CE8
:10249000002913D02649274A0E78214618313300E7
:1024A00003F02DFE162D1A1C2022252D2736382D3F
:1024B0002D2D2D2D2D3A3C3E3F23412D61782B466D
:1024C000002906D01949042214311B4800F020FAD3
:1024D00070BD01221649F9E7226901E0174A20E0A0
:1024E0000A600CE0164A1CE0164A5268F8E7164AE1
:1024F00017E0164A12780A70154A12784A700B498A
:102500002B460422183100F069FA0020607070BD7B
:10251000104A06E0104A04E0104A02E0104A00E0C7
:10252000104A1268DCE79268DAE700000000002039
:10253000140400200C070020EC04002038000020C8
:10254000440000205C0000201C00002064000020EB
:102550006500002070000020800000208400002022
:10256000740000203007002070B5040014D024212E
:1025700020464030054641702068016849084900FE
:102580000160204600F0C8F8002161646970216391
:10259000A9702970084670BD012070BD70B5036830
:1025A0009A691968D243D40508D4CC43240605D4CB
:1025B000446C01252C4344642C02DC61530509D48E
:1025C000CB431B0606D4436C082423434364E30136
:1025D0000468E361920509D4C943090606D4416C35
:1025E00002221143416411020268D161416C0B2245
:1025F000114201D001F0C4FF70BD026891691268F8
:10260000436B002B00D018477047000010B50146FF
:1026100040314A78202A01D0022010BD28224A7079
:10262000034941630121C90301F02CFF002010BDC3
:10263000BD4B000810B5FFF797FF02F0FBFC01222D
:102640000249034800F038F910BD000014040020CE
:10265000EC04002070B5040006D0254640356878AB
:102660000026002802D005E0012070BD2E70204613
:1026700000F072F824206870206801684908490059
:1026800001600F216068090688432168086121689C
:102690008A680120C00382438A60E1680129A16839
:1026A00008D021229202114322689160E168022938
:1026B00002D005E00143F7E701212268C902516019
:1026C00021684A680F4B1A434A602168CA688243EE
:1026D000CA60616920690843A16909020843216849
:1026E000C860216AE06908432168086020680168C1
:1026F0000122114301606664202068702663AE7079
:10270000002070BD0080000210B5FFF77FFF10BDF4
:10271000704770477047704710B500680B49884292
:1027200012D10B48C16B012252059143C163094C80
:1027300041152046FFF732FDFF2101312046FFF70A
:102740002DFD172000F008FA10BD000000540040D5
:10275000001002400004005030B591B0044614212E
:102760000AA8FDF7ACFD28216846FDF7A8FD1B4926
:10277000206888422FD120200025009003956846CC
:1027800000F030FA002801D0FFF7E2F8144C616B3A
:10279000022001436163616B0C95014003200F919E
:1027A00000020A9012200B9006200E900D950AA9A7
:1027B0000C48FFF75DFDE16B012040050143E1633B
:1027C000E16B002201400F910321172000F0E0F996
:1027D000172000F0D1F911B030BD000000540040C6
:1027E000001002400004005070B5264C2648617865
:1027F00000250278012904D00121812A2FD061709F
:1028000070BD2049214E14310868130003F077FC95
:1028100016250C25252525250E15172525252525C5
:10282000251A1C1E20222425206116E0184A08784B
:1028300010704878174908700FE0174900E01749F1
:1028400008600AE01649FBE71649F9E71649F7E779
:10285000306002E0706000E0B060657070BDA2782A
:102860001248002A05D0A57000224021FFF7B6FDCE
:1028700070BDA17001224021FFF7B0FD0C48006837
:10288000206170BD00000020140400200C0700200F
:1028900064000020650000207000002080000020FF
:1028A0008400002074000020300700200008005041
:1028B0003800002070470000F8B5034640335C78CC
:1028C000202C1ED11C78012C1BD001241C7022242A
:1028D0005C7020249C700024446405686E680127A5
:1028E000FF03BE436E6041624285418D018506490A
:1028F000C162064941631C70B91C01F0C3FD002090
:10290000F8BD0220F8BD00000000FFFFBD4B00082D
:10291000FFB505460F464035697881B01646044636
:102920002820884313D1002F0ED0002E0CD0284928
:10293000204601F07DFD287801280BD00120287069
:102940006878292808D021E0012040026064012035
:1029500005B0F0BD0220FBE70121204601F068FD33
:1029600020680168490411D501680122920391434E
:102970000160A06B002809D016498163A06BFFF7A6
:10298000C5FA002802D0A06B816B88472A206870A6
:102990002020A8700020606421684A680123DB03BE
:1029A0009A434A6067626685618D21850499E16278
:1029B0000949616321688A69D20301D40822CA6186
:1029C00028700349204601F05DFD0020C0E70000AB
:1029D0000280000015440008BD4B0008FFB5054605
:1029E0000F464035697881B0164604462820884352
:1029F00013D1002F0ED0002E0CD02949204601F013
:102A000017FD287801280BD00120287068782A2823
:102A100008D021E0012040026064012005B0F0BD33
:102A20000220FBE70221204601F002FD2068016838
:102A3000090411D502680121C9038A430260E06BD1
:102A4000002809D017498163E06BFFF75FFA00287F
:102A500002D0E06B816B8847292068702020A87025
:102A60000020606421684A680123DB039A434A60BE
:102A700067626685618D21850499E1620A49616317
:102A800021688A69120CD207D20F01D00822CA61CC
:102A900028700349204601F0F5FC0020BEE7000045
:102AA0000180000015440008BD4B00080248816801
:102AB00002788918816070472400002010B508480A
:102AC00000240168821511430160204600F00AF8D5
:102AD000002801D0012401E000F028F8204610BDB4
:102AE0000020024070B50F4E0024317805460029C1
:102AF00015D07D20C000FDF7E4FB01460A480068C0
:102B0000FDF7DFFB00F046FF002808D1042D06D2B8
:102B100000222946401E00F03BF8756000E00124C9
:102B2000204670BD240000203000002008B5094870
:102B300001680122114301600068104000900548BF
:102B40004038C26B01040A43C263C06B0840009066
:102B500008BD000040100240002809DBC106C90E74
:102B60000120884003490860BFF34F8FBFF36F8F88
:102B70007047000080E100E0002805DBC106C90EB7
:102B800001208840014908607047000000E100E032
:102B900010B503F0D7FA10BD10B50F4C2168032211
:102BA0005202914301432160C11FFF39FA390ED10E
:102BB0000A480621006848430949FDF782FB401C8A
:102BC00002E0002805D0401E61694905F9D40020C3
:102BD00010BD032010BD0000007000403000002038
:102BE00040420F00F8B5044600680026664D800399
:102BF00058D5654800274038C06BC00009D46248EA
:102C00004038C26B01040A43C263C06B084001270D
:102C100000905E480168821511430160FFF7E4FBF4
:102C2000009005E0FFF7E0FB0099401A022825D844
:102C300056480068C005F5D5E86903210902084037
:102C40000FD0616A81420CD0E86903210902EA6968
:102C50008843012109040A43EA61EA698A43EA6177
:102C6000E861C0070FD0FFF7BFFB009008E0FFF757
:102C7000BBFB0099411A4648814201D9032609E06D
:102C8000E8698007F3D5E869032109028843616A8E
:102C90000843E861002F05D03B484038C26B01046F
:102CA0008A43C2632078C00705D0686961688008DC
:102CB0008000084368612078C00606D56869032152
:102CC00089028843A168084368612088800506D589
:102CD0006869032189048843616908436861208821
:102CE000400506D56869032109058843A1690843A1
:102CF00068612078800606D5686903210903884346
:102D0000E168084368612088400411D56869E16979
:102D100080008008084368610121E06989078842D2
:102D200006D119484038C168012212041143C1601C
:102D30002068800210D5686901218905226A8843CC
:102D400010436861206A884206D10F484038C16844
:102D5000012212061143C1602088000512D568695E
:102D6000032189038843216908436861012120699F
:102D70008903884206D104484038C1680122120400
:102D80001143C1603046F8BD401002400070004061
:102D900088130000F8B50F46060043D04D4D286853
:102DA0004007400FB84213D22868C008C00038431B
:102DB0002860FFF719FB044605E0FFF715FB011B30
:102DC0004548814261D828684007400FB842F4D195
:102DD0003068424C81070DD5400704D5A068072113
:102DE00009030843A060A0680F2109028843B16865
:102DF0000843A0603078C00732D0706801280AD03C
:102E000002280BD000280FD03449403103280ED0BF
:102E1000C969890704E02168890301E02168890103
:102E2000002906DB0120F8BD21684905F8E7096A99
:102E3000EFE7A168C908C9000143A160FFF7D4FA10
:102E4000009006E0FFF7D0FA0099411A224881422B
:102E50001BD8A068382108407168C9008842F1D1A8
:102E600028684007400FB84217D91A480168C908B6
:102E7000C90039430160FFF7B7FA054607E0FFF7DD
:102E8000B3FA411B1448814201D90320F8BD11480F
:102E900000684007400FB842F1D13078400706D5AE
:102EA000A068072109038843F1680843A06000F087
:102EB00031F8A1683C2289091140094A515CC906D0
:102EC000C90EC8400749086007480068FFF70AFEB6
:102ED000F8BD0000002002408813000000100240EE
:102EE000107900083000002028000020064807491B
:102EF00000688968064A4904490F8900515CC9067F
:102F0000C90EC84070470000300000200010024089
:102F10005079000810B5204CA068204A8006400F68
:102F200016D0A0688006410F501001290FD0A1686B
:102F30008906490F022912D0A0688006400F042894
:102F400023D0A0688006400F032821D0002010BDA8
:102F5000206801218004400F8140104612E0E168A2
:102F60008B07E1689B0F4906490F491C032B00D0D2
:102F70001046FDF7A6F9E1684904490E4843E168A7
:102F8000490F491CFDF79DF910BD0120C00310BD7C
:102F90007D20000210BD0000001002400024F4005B
:102FA000F8B504007ED020783827C007ED4D002802
:102FB00046D0A868E96838408907890F102802D0F0
:102FC00008280BD001E0032908D001206268000422
:102FD00082420AD129680143296015E028688003EC
:102FE0002ED560680028DDD02AE0052301211B04CE
:102FF00089049A422A6802D10A432A60EAE7824396
:103000002A60286888432860606800280CD0FFF791
:10301000EBF9064604E0FFF7E7F9801B642873D854
:1030200028688003F7D50BE0FFF7DEF9064604E0D9
:10303000FFF7DAF9801B6428F1D828688003F7D4F9
:103040002078800769D5A868E96838408A07072191
:10305000920FC902102802D0002813D001E0022AE2
:1030600010D0E068002846D02868884321690843CA
:1030700028602868FF21013108432860FFF7B4F970
:1030800006462CE02A68520502D5E268002A89D05B
:103090006A687F231B029A4363691B021A436A60B2
:1030A000002800E08DE00ED128688843216908439C
:1030B0002860286801218004400F8140AA48FDF75C
:1030C00000F9AA490860AA480068FFF70BFD00282C
:1030D00077D122E0FFF788F9801B02289FD8286863
:1030E0004005F7D568687F210902884361690902B4
:1030F0000843686011E02968FF200130814329609E
:10310000FFF772F9064605E098E0FFF76DF9801BBE
:10311000022884D828684005F7D42078954E000707
:103120002ED5A8688006400F03280AD0A069002881
:10313000306A16D0012108433062FFF755F907467F
:103140000BE0306A80071BD5A06900289FD017E0EC
:10315000FFF74AF9C01B022870D8306A8007F7D5FC
:103160000EE0400840003062FFF73EF9074604E0F9
:10317000FFF73AF9C01B022860D8306A8007F7D4FD
:10318000207840076CD5A86800278006400F0428E7
:1031900018D0E86BC00008D4E96B01200007014398
:1031A000E963E96B01400127009173480168C90593
:1031B00019D40168821511430160FFF715F90090D9
:1031C0000DE083E0F06980074AD5A06800287DD033
:1031D00046E0FFF709F90099401A02282ED8664800
:1031E0000068C005F5D5A168012910D00420052983
:1031F000F16911D049084900F161F1698143F16138
:10320000A068002816D0FFF7EFF800900EE0F069F4
:1032100001210843F061F3E70143F161F7E7FFF7AC
:10322000E3F80099411A5548814267D8F069800750
:10323000F5D50EE0FFF7D8F8009007E05EE0FFF765
:10324000D3F80099411A4D48814257D8F069800758
:10325000F5D4002F04D0E86B012109078843E86307
:10326000E06900287BD0A9688906490F02294FD060
:10327000012636060228286805D0B0432860FFF7EB
:10328000B3F804463CE0B0432860FFF7ADF80746CA
:1032900004E0FFF7A9F8C01B02282FD82868800196
:1032A000F7D4616A206AA26A0843E16A12021143F4
:1032B0000843216B0843616B0843E968304A1140B9
:1032C0000843E86028683043286000E045E0E8688B
:1032D000012109070843E860FFF786F8044604E087
:1032E000FFF782F8001B022808D828688001F7D56C
:1032F00035E0FFF779F8001B022801D90320F8BD5B
:1033000028688001F5D4E8681E490840E86026E096
:103310000128F4D0E868226A8107890F91421CD104
:103320007021626A0140914217D17F21A26A09028D
:1033300001401202914210D11F214904E26A01406A
:1033400091420AD107214906226B0140914204D1E2
:10335000400F616B4007884201D00120F8BD00207A
:10336000F8BD0000001002400024F40030000020EE
:103370002800002040100240007000408813000028
:103380008C80C111FCFFFEEEF8B504000CD0606A21
:10339000002500280AD02561656126464036A562D1
:1033A000707F002808D00BE00120F8BD6168C81FBD
:1033B000FD38F2D0E561F0E73577204600F05CF8A3
:1033C0000222727720680168402399430160072335
:1033D000E1681B02994201D9002001E001200003AD
:1033E0000F273F02B94202D0994200D0A562FF23C5
:1033F0006168053319402127A368BF023B40194388
:1034000023691340227D1943D207D20F11430123B0
:10341000A2695B021A401143E26938231A40114342
:10342000226A80231A401143A26A9B011A40114369
:1034300022681160A1690422090C1140626A1023FC
:103440001A401143626B08231A4011430F23E268AC
:103450001B021A401143012212031040014320684D
:1034600041602068C16952109143C1612566012005
:1034700070770020F8BD000010B586B00446142116
:103480006846FCF71CFF1149206888421BD1104890
:10349000026881140A4302600068084005900C48E5
:1034A0004038426B02210A434263406B019108405D
:1034B0000590282000900020029003900490694617
:1034C0000448FEF7D5FE06B010BD000000300140F4
:1034D0004010024000040050FFB504464068FF2140
:1034E000254600260531403581B01746884202D175
:1034F000A06800280CD0287F012815D0012028774B
:10350000FEF772FF0090687F01280FD002268FE03F
:103510000420687713460498029A009011462046CA
:1035200000F03EF905B0F0BD0220FBE7029800284C
:103530007DD0002F7BD00420687700202066029980
:103540002164AF80EF80A063A087E087E0642065FE
:1035500007210120E268090200038A4222685368B9
:1035600001D9834300E0034353600123A068DB03D8
:103570004022984208D12068036893430360206882
:1035800003681702BB430360206803685B0602D42C
:10359000036813430360E06888421AD938E0206862
:1035A0008168C90709D0007B216C0870206C401C21
:1035B0002064E888401EE8800BE0FEF715FF0099C4
:1035C000411A0498814202D3401C02D036E0002800
:1035D00034D0E8880028E2D11DE020688168C9075E
:1035E00009D0C068216C0880206C801C2064E888A9
:1035F000401EE8800CE0FEF7F7FE01460098091A2D
:103600000498814202D3401C02D017E0002815D054
:10361000E8880028E1D12046009A049902F000F8D9
:10362000002801D020202066206E002800D001262E
:103630000120687700202877304673E70326F7E7F4
:10364000FFB5054604464035287F002781B0164661
:10365000012809D001202877FEF7C6FE0090687F78
:10366000012804D0022795E0022005B0F0BD0298A1
:10367000002872D0002E70D00320687700202066CA
:103680000299A163A687E6872064A880E880206568
:10369000E0640122A068D2034021904208D1206852
:1036A00002688A430260206802680B021A430260C3
:1036B00020680268520602D402680A4302600721A9
:1036C000E06809028842606826D9002801D0012EEE
:1036D0001ED1A06B21680088C86006E02068816860
:1036E000890709D5A16B0988C160A06B801CA06304
:1036F000E08F401EE0870BE0FEF776FE0099411A4E
:103700000498814202D3401C02D039E0002837D00F
:10371000E08F0028E2D126E0002801D0012E1FD141
:10372000A06B21680078087306E02068816889072B
:1037300009D5A16B09780173A06B401CA063E08FD1
:10374000401EE0870CE0FEF74FFE0099411A0498F6
:10375000814203D3401C03D012E01AE000280FD0AE
:10376000E08F0028E1D12046009A049901F094FFEF
:10377000002801D020202066A068002802D005E0A3
:10378000032707E02068C16880680090206E002849
:1037900000D001270120687700202877384664E7A9
:1037A000FFB5044683B00120019000202546403536
:1037B0000090287F0C9F1E4601280FD001202877FB
:1037C000FEF712FE0290687F616801280DD0CA1FC3
:1037D000FD3A08D1A168002905D102E0022007B016
:1037E000F0BD042801D00220D1E00498002820D0A8
:1037F000059800281DD0002E1BD0687F042801D01A
:10380000052068770020206605992164EE80AE804F
:103810000499A163E687A687E0642065072101205B
:10382000E268090200038A422268536803D983438D
:1038300002E00120ABE003435360206802685206B7
:1038400003D4026840231A430260E068884260683B
:1038500044D9002801D0012E39D1A06B21680088FD
:10386000C860A06B801CA063E08F401EE0872EE044
:1038700020688168890710D5E18F00290DD0019952
:1038800001290AD1A16B0988C160A06B801CA063CB
:10389000E08F401EE0870020019020688168C90702
:1038A0000DD0E98800290AD0C068216C0880206CFE
:1038B000801C2064E888401EE88001200190FEF70B
:1038C00093FD0299401AB84201D3781C5ED1E08F73
:1038D0000028CDD1E8880028CAD146E0002801D0D0
:1038E000012E3CD1A06B216800780873A06B401CAE
:1038F000A063E08F401EE08731E02068816889077F
:1039000010D5E18F00290DD0019901290AD1A16BB1
:1039100009780173A06B401CA063E08F401EE08714
:103920000020019020688168C9070DD0E98800292E
:103930000AD0007B216C0870206C401C2064E88851
:10394000401EE88001200190FEF74EFD0299401ACA
:10395000B84202D3781C02D018E0002F16D0E08FB6
:103960000028CAD1E8880028C7D139462046029AE3
:1039700001F092FE002803D0012000902020206654
:103980000120687700202877009828E7032000901E
:10399000F6E70000094910B5401E884201D9012010
:1039A00010BD074C60610321081F02F0CBFB002013
:1039B000A06107202061002010BD0000FFFFFF0074
:1039C00000E000E0704770477047000070B50346A4
:1039D00020331A7F012A4BD001221A770325CA68A7
:1039E0002D02AA438D6800682A430125AD02AA432F
:1039F0004D6800242A430125ED02AA430D682A439D
:103A000001252D03AA430D692A4301256D03AA430D
:103A10004D692A430125AD03AA430D6B2A430F25A7
:103A20002D04AA430D8B2D042A43124DA84204D124
:103A300001263607B243CE693243A84214D10F257E
:103A40002D05AA430D8D2D052A4301252D06AA43D8
:103A50000D6A2A4301256D06AA434D6AC96A2A43A5
:103A600001256D07AA430A4342641C77002070BDFC
:103A7000022070BD002C0140F0B5034620331A7FB0
:103A8000012A28D001221A7702225A770468626834
:103A9000A568124FBC4205D116460F221205964367
:103AA0004A6832437026B2430E6816436660006867
:103AB000B84206D001229207904202D0084A9042B2
:103AC00004D1802289689543294381600120587779
:103AD00000201877F0BD0220F0BD0000002C01404E
:103AE0000004004070B5040005D025462035687FED
:103AF000002802D006E0012070BD00202877204673
:103B000000F016F802206877211D206801F0F6FE0B
:103B1000012240342272AA77EA7722706270A27082
:103B2000E27022716271A271E2716A77002070BD49
:103B300010B58CB0044628216846FCF7C0FB184934
:103B40002068884215D1012040050090002008908F
:103B50006846FFF747F8002801D0FDF7F9FE114845
:103B60000268C1140A430260006808400A900CB061
:103B700010BD012189078842F9D10A484038C16B3C
:103B800001221143C163C06B022110400A90002240
:103B90000F20FEF7FDFF0F20FEF7EEFFE7E7000026
:103BA000002C014040100240014620314A7F012A8A
:103BB00001D00120704702224A770168CB680122B8
:103BC0001343CB6000680B49884205D091078842B7
:103BD00002D00949884207D18168084B194006295B
:103BE00005D0DB1F994202D001681143016000201B
:103BF00070470000002C0140000400400700010055
:103C0000F8B5054604462035287F0026012817D040
:103C100001272F7702206877226890682F4B184081
:103C2000FF231B02984390600868502838D00EDCB0
:103C300020284FD006DC00284CD010281ED149E0A7
:103C40000220F8BD302845D0402817D13AE060283E
:103C50002ED0702818D001221203801A0FD0904263
:103C60000CD1CB684A688968206801F096FE20680C
:103C70008168012292031143816000E001266F7781
:103C8000002028773046F8BDCB684A6889682068EC
:103C900001F083FE21688868772210438860EEE790
:103CA000CA684968206801F0DDFF5021206806E0FD
:103CB000CA684968206801F0E6FF6021206801F0C9
:103CC00077FEDCE7CA684968206801F0CBFF402135
:103CD0002068F4E7226801461046F0E788FFCEFF2F
:103CE0007047000070B50446006801690025C943AB
:103CF0008907002915DBC168C943890711D4E91E6A
:103D0000016101202077206880698007204602D069
:103D1000FFF7E6FF04E000F005F9204600F0E5F9C2
:103D2000257720680169C943490717D4C168C94389
:103D3000490713D40421C943016102202077206878
:103D400080698005800F204602D0FFF7C9FF04E09C
:103D500000F0E8F8204600F0C8F9257720680169EE
:103D6000C943090716D4C168C943090712D40821F9
:103D7000C9430161042020772068C069800720467C
:103D800002D0FFF7ADFF04E000F0CCF8204600F0D1
:103D9000ACF9257720680169C943C90617D4C16801
:103DA000C943C90613D41021C943016108202077F3
:103DB0002068C0698005800F204602D0FFF790FF81
:103DC00004E000F0AFF8204600F08FF92577206876
:103DD0000169C943C90708D1C168C943C90704D1EA
:103DE000891E0161204600F0E5F920680169C94398
:103DF000090609D4C168C943090605D48021C9430D
:103E000001612046FFF7DFFD20680169C943C9054C
:103E100008D4C168C943090604D412490161204687
:103E2000FFF7D0FD20680169C943490609D4C1687C
:103E3000C943490605D44021C9430161204600F029
:103E4000FDF920680169C943890609D4C168C943DD
:103E5000890605D42021C94301612046FFF7B4FD3E
:103E600070BD0000FFFEFFFF10B586B004461421B0
:103E70006846FCF724FA0E492068884215D10D489F
:103E8000416B012211434163406B022110400590B8
:103E900007200002009000200290039001910491FD
:103EA000052069460007FEF7E3F906B010BD0000E3
:103EB000002C01400010024070B5054620352B7FD4
:103EC0000024012B0BD001232B770C2A1ED008DCF9
:103ED000002A0FD0042A11D0082A06D112E00220AD
:103EE00070BD102A16D0142A18D00124002028777B
:103EF000204670BD006801F065FDF7E7006801F03D
:103F00009FFDF3E7006801F0D9FDEFE7006801F0DD
:103F100013FEEBE7006801F045FEE7E7006801F0FB
:103F20006FFEE3E7704770B5040005D025462035E5
:103F3000687F002802D006E0012070BD00202877AD
:103F4000204600F016F802206877211D206801F055
:103F5000D5FC012240342272AA77EA77227062707F
:103F6000A270E27022716271A271E2716A77002020
:103F700070BD7047F8B504460020264620360090F4
:103F8000307F0D4601280CD00120082730770C2AFD
:103F900048D008DC002A10D0042A1ED0082A06D1F6
:103FA00030E00220F8BD102A52D0142A60D001203F
:103FB0000090002030770098F8BD206801F002FDE5
:103FC00020688169394381612068816904229143B5
:103FD0008161206881692A6911E0206801F030FD63
:103FE000206881690122D2021143816120688169C0
:103FF000521091438161206881692A69120211433C
:104000008161D6E7206801F059FD2068C169394314
:10401000C1612068C16904229143C1612068C169FE
:104020002A6912E0206801F087FD2068C169012239
:10403000D2021143C1612068C269012189028A4309
:10404000C2612068C1692A6912021143C161B0E7E7
:10405000206801F0A7FD2068416D39434165206863
:10406000426D04218A4342652068416D2A6912E04D
:10407000206801F0C5FD2068416D0122D202114384
:1040800041652068426D012189028A4342652068AA
:10409000416D2A691202114341658AE770B5040037
:1040A00005D025462035687F002802D006E0012093
:1040B00070BD00202877204600F016F802206877AF
:1040C000211D206801F01AFC012240342272AA77D7
:1040D000EA7722706270A270E27022716271A2713E
:1040E000E2716A77002070BD7047704710B50446D2
:1040F0000223203000290ED0042911D02046403060
:10410000082912D00C2915D0102918D0C278012AFC
:104110001AD0012010BD827F012AFAD1837714E0E2
:10412000C27F012AF5D1C3770FE00278012AF0D1CE
:1041300003700AE04278012AEBD1437005E08278EF
:10414000012AE6D1837000E0C3700122206801F0EB
:1041500017FC13492068884205D0124A904202D0C9
:10416000114A904204D1426C0123DB031A4342649A
:1041700020680122884205D09107884202D00B496D
:10418000884207D181680A4B1940062905D0DB1FF8
:10419000994202D0016811430160002010BD000067
:1041A000002C014000440140004801400004004050
:1041B0000700010070B51A4CFF21E068F531401C82
:1041C000E060FCF77EF8002901D10120207015483D
:1041D0004689144820380589AE420FD01248134949
:1041E000C088096848431249FCF76BF8401B6421FA
:1041F0004843711BFCF76FF81E3000E00D48616802
:1042000040186060A168491CA160C82906D1FCF76C
:1042100058F80949086000206060A06070BD000087
:1042200000000020C075FF1F200400202000002097
:10423000B80B0000FF7F00001C000020704710B585
:10424000014680310A78012A15D001220A70242201
:104250004A600268136814686408640014600122EC
:1042600052079343002242660068036020204860A2
:104270000A70104610BD022010BD70B504460546F8
:104280008034207801281AD001202070242060601A
:10429000286806680268520852000260286882682E
:1042A00007235B069A430A438260284601F0FEFC1E
:1042B00028680660202060600020207070BD022009
:1042C00070BD70B50446054680342078012819D0A9
:1042D0000120207024206060286806680268520867
:1042E0005200026028688268D200D2080A438260C5
:1042F000284601F0DBFC2868066020206060002072
:10430000207070BD022070BD70B5040005D0254638
:1043100080356868002802D006E0012070BD0020CA
:104320002870204600F026F8242068602068016884
:10433000490849000160204601F072FD0128EDD0D6
:10434000A06A002802D0204601F0D2FC2068416813
:104350000922D20291434160206881682A22914358
:10436000816020680168012211430160204601F04C
:1043700025FD70BD10B590B0044614210AA8FBF7C6
:104380009EFF28216846FBF79AFF1649206888425D
:1043900025D101200024009001946846FEF722FCFC
:1043A000002801D0FDF7D4FA0F48026801218903E3
:1043B0000A430260006808400F900B484038426B87
:1043C00002210A434263406B0AAA08400F90C020B2
:1043D00013C20D940AA905480E94FDF749FF10B0C9
:1043E00010BD0000003801404010024000040050A1
:1043F000FEE7000010B50648006880694005400FE0
:10440000034802D0FEF7CAF810BDFEF7F6F810BD5B
:10441000EC04002010B5806A0021826B002A00D0D5
:104420009163C26B002A00D0916300F075FC10BD4F
:10443000F0B504460022CE0740342823B025002ED4
:1044400005D0667842221F46B74300D0F2228E077D
:1044500005D5442664783243A34300D02A43CB0BCE
:1044600001D0B8231A43102908D0202907D04029A9
:1044700005D00068016891430160F0BD90210A43B6
:10448000F7E7000010B5144C436B0022A34202D0A2
:10449000124CA3420ED1CB0B00D0B822102904D06D
:1044A000202904D0402903D011E0902100E06021B0
:1044B0000A430CE0CB0B00D0B822CB0701D0F2238B
:1044C0001A438B0701D5F4231A432029F0D0006842
:1044D00001681143016010BD9D490008A94A000808
:1044E00001688A69D243920701D400228A62006877
:1044F0008169C943C90703D08169012211438161E0
:104500007047F8B505460446403568782821814350
:10451000206804D00821C16100202870F8BD81699D
:10452000C903CF0F8169FE230E0C81681E408A05E6
:10453000C168920D19408C46E168022916D1062106
:10454000D3090E400B409E420FD1A16C491CA164BF
:10455000A16C0229E2D10021A1640823C361297062
:1045600039462046FDF790FFF8BD66460121C90394
:104570002046FFF75DFF002028703246F0E700007C
:10458000F8B505460446403568780026AE70334AD3
:10459000E2626685626C0A43626428281ED029287C
:1045A0001CD02A281AD02E492046FFF741FF6878F0
:1045B000602801D0202068706663206BA16B294FB2
:1045C000002903D0112812D0212810D0E16B002936
:1045D00025D0122827D0222825D020E003212046EC
:1045E000FFF726FF282068701F486063E5E7206812
:1045F0000168490404D501680122920391430160D6
:10460000A06BFDF7C1FC012809D0A06B87632E7059
:10461000A06BFDF77BFC002804D0A06B1AE02046BD
:1046200000F07AFBF8BD20680168090404D5016830
:104630000122D20391430160E06BFDF7A5FC012844
:10464000EDD0E06B87632E70E06BFDF75FFC002818
:10465000E8D0E06B816B8847F8BD00000000FFFFE9
:104660000380000015440008BD4B000870B50446E7
:104670001648E06200252563202220464030064689
:1046800042708570C8436563400712D42068406A51
:10469000616A0870606A401C6062208D002808D042
:1046A000401E2085608D401E6085606C042108439B
:1046B000606407492046FFF7BBFE21681020C861EF
:1046C00035702046FEF720F870BD00000000FFFFA7
:1046D00003800000F8B50546009100682027C761F7
:1046E0002C4640346078212803D06078222806D0F8
:1046F0000BE001212846FFF79BFE112004E0022178
:104700002846FFF795FE1220286328684168254A4D
:1047100011404160002624486E63E8620098C0435F
:10472000C10606D42A681021D161696C04221143A4
:1047300069646178602905D1400703D42868406A1C
:10474000C0B200902846FFF7CBFE686C6178602904
:1047500001D0002804D0696C2846FFF711FFF8BD8E
:10476000607821280DD060782228F8D167702E63F8
:10477000A078A67040282670284610D0FDF7C8FF04
:10478000F8BD67702E63A078A67040282670284672
:1047900002D0FDF7BEFFF8BDFDF7BDFFF8BDFDF788
:1047A000B9FFF8BD00E800FE0000FFFF70B500256E
:1047B000064640360446B570717820202129707075
:1047C0000BD012202063022120466563FFF730FEE4
:1047D00035702046FDF79CFF70BD1120206301213C
:1047E00020466563FFF724FE35702046FDF791FFF4
:1047F00070BD0000F8B502680446166805464035ED
:1048000068780F462021D161212806D0292804D0BC
:10481000222808D02A2806D00CE042492046FFF77B
:1048200007FE212005E03F492046491CFFF700FE16
:1048300022202063206841680122D2031143416095
:1048400020684168384A114041602046FFF748FE21
:10485000F043410407D42068016801229203914388
:104860000160A06B08E000040BD4206802680121FD
:10487000C9038A430260E06B002802D000684068E8
:104880006085F8434007042100280FDB20688F4330
:10489000406A626A1070606A401C6062208D002865
:1048A00004D0401E2085608D401E6085608D0028EC
:1048B00002D0606C084360640026AE706663606C72
:1048C00000280BD0616C2046FFF75AFE6878282834
:1048D00003D139462046FFF7C9FEF8BDE06A134F01
:1048E000B8420BD0204600F023F8E7622020687021
:1048F00026632E702046FDF707FFF8BD6878222852
:1049000007D02020687026632E702046FDF7D2FF66
:10491000F8BD2020687026632E702046FDF764FFE6
:10492000F8BD00000180000000E800FE0000FFFF6D
:1049300070B505460068016800262C464034A67014
:10494000C9434A0403D401680122920304E0090424
:1049500004D401680122D2039143016061782820C8
:1049600029290ED061782A290AD160702220286373
:1049700002212846FFF75CFD26702846FDF734FF2C
:1049800070BD60702120286301212846FFF750FD8B
:1049900026702846FDF78EFF70BD0000F8B505466D
:1049A000044640352878012817D001202870CB43D1
:1049B000DE06D043002E12DBC20610D42168102080
:1049C000C861606C04210843606420212046FFF721
:1049D00059FD2046FFF784FD5FE00220F8BD304A14
:1049E000304E1F0637D4470635D42068016840236F
:1049F00099430160608D00282068406828D08105B7
:104A0000608D890DFF2803D9FF2020859B0408E0D5
:104A1000608D2085E06A904201D0E36A01E00123C5
:104A20005B0600200090208DC2B2204600F05EF9A7
:104A3000608D218D401A6085687822282068016881
:104A400002D03143016028E00122D2031143F9E78B
:104A5000800117D506E05F0618D4470616D4608D8E
:104A6000002804D040212046FFF78AFD15E0206889
:104A70004168890111D4E16A914203D1416831430F
:104A800041600AE02046FFF791FE06E09A0604D452
:104A9000800602D42046FFF71DFE00202870F8BDD6
:104AA0000000FFFF00400000F7B5C76A82B004466F
:104AB00000202646403601903078012823D001207E
:104AC00030700398D543C04300908006002805DB72
:104AD000A80603D420460399FFF78CFE0098C00671
:104AE0005FD4E8065DD469041020002901DA2904A6
:104AF00054D4E16B00290BD02A0409D40968496811
:104B0000002903D004E0022005B0F0BD012101918D
:104B1000A16B002905D06A0403D4096849680029FB
:104B200002D0019900291BD07178282908D10121D0
:104B300049068F4204D120460399FFF797FD39E0DB
:104B4000717829292AD101210904CF4226D0216870
:104B5000C8612046FFF7C4FC2046FFF7E9FE29E0C4
:104B60002168C861606C0421084360647078002F7C
:104B700002D089058F421DD1212806D0292804D0D2
:104B8000222804D02A2802D003E0212000E022209D
:104B90002063616C2046FFF7F3FC0BE02168C861DD
:104BA00008E00098000705D4280703D4204603999D
:104BB000FFF7A7FC00203070A6E70000FEB5C56A2D
:104BC00004460646403601913078012828D001205D
:104BD00030700198D743C04300908006002805DB61
:104BE000B80603D420460199FFF704FE00983D491A
:104BF0003D4AC00630D4F8062ED4638D1020002B19
:104C000010D02168C861606C042108436064002DE5
:104C100001D0954262D1616C2046FFF7B1FC5DE0A6
:104C20000220FEBD7278282A08D101225206954240
:104C300004D120460199FFF719FD4FE07278292A27
:104C400007D18D4205D02168C8612046FFF748FC96
:104C500041E02168C86141E00098400717D4780717
:104C600015D4608D00280CD02068406A626A1070EC
:104C7000606A401C6062208D401E2085608D401E51
:104C80006085608D002829D18D4224D126E00098CE
:104C9000000706D4380704D420460199FFF731FCF9
:104CA0001CE00098800719D4B80717D4608D00283D
:104CB0000DD0606A216800788862606A401C60627A
:104CC000608D401E6085208D401E208506E0954247
:104CD00001D0002D02D12046FFF72AFE00203070BF
:104CE000FEBD00000000FFFF00000001890510B5B7
:104CF000890D12041143029C1943026821434900A3
:104D000050684908630D034C23439843084350609F
:104D100010BD0000FF63FF0310B5014640314B7822
:104D20000022602B04D002630A70FDF783FC10BDE3
:104D300020234B7002630A70FDF7A5FB10BD80684D
:104D4000C007C00F704780684007C00F7047C06839
:104D50000005800F01D000207047012070470268D5
:104D600007239B059A430A430260704710B54369C5
:104D70000424214007248C40A3438A401343436109
:104D800010BD0000084A0020064950601160906084
:104D90000C325060116090600C3250601160906075
:104DA00070470000CDCC4C3D54070020F3B50446BD
:104DB0001C4881B08569A0681B4E1C4FA84201D9D0
:104DC000401B02E01A49491B0818FCF727FA314634
:104DD000FCF70AF9394602F08FFC01461548A56038
:104DE000814203DB029860600298FEBD2568284678
:104DF00002F0E8FB01462846FCF7F6F806460146B5
:104E00007F20C00502F008FD029902F075FC0546FE
:104E10003046616802F070FC294602F0D3FB606006
:104E2000FEBD000000E000E000001041BD37863507
:104E3000FFFFFF009A99993E054800998160054956
:104E4000C16005490161054941610CC0704700001E
:104E50009C000020BF5D5F3F600877BF93B95E3F55
:104E600010B5FCF7E3FC10BD3EB5002431480094BA
:104E700001942F490294016084604905C460416037
:104E80000425890A45610161047644768476052209
:104E900001462031C2610C702B0243628362012300
:104EA0000B730463846342630C77C464FCF768FE8D
:104EB000002801D0FCF74CFD1F4800900194694682
:104EC00002941C48FCF746FD002801D0FCF740FD89
:104ED0001A480090694601951648FCF73BFD0028EA
:104EE00001D0FCF735FD1648009008200190694676
:104EF0001048FCF72FFD002801D0FCF729FD1148D0
:104F000000900C20019069460A48FCF723FD002818
:104F100001D0FCF71DFD0C4800901020019069465F
:104F20000448FCF717FD002801D0FCF711FD3EBD39
:104F3000002401402C0400200800000C1000001088
:104F400020000014001000B0002000B408B508488C
:104F50000121826B0A438263806B0022084000902B
:104F600003210920FDF714FE0920FDF705FE08BD09
:104F700000100240F0B587B014216846FBF79FF996
:104F80002948426B02210A434263426B0A40059260
:104F9000416B012529434163416B29400591426BD7
:104FA00004210A434263406B204E084005900022D2
:104FB00040213046FDF712FA052701223F07D102B2
:104FC0003846FDF70BFA0022E9033846FDF706FAEA
:104FD000002210211648FDF701FA4020002400901D
:104FE00002946946019503943046FDF741F911207A
:104FF000C002009002946946019503943846FDF77B
:1050000037F9280300900194694602943846FDF769
:105010002FF91020009002946946019503940448EA
:10502000FDF726F907B0F0BD00100240000800505F
:105030000004005010B51448124901601349416042
:10504000202181600121C1600021016141618161F4
:10505000C1610162FDF7FEFA002801D0FCF778FC7F
:1050600000210948FDF7C6F9002801D0FCF770FCC3
:1050700000210548FDF7E3F9002801D0FCF768FCA2
:1050800010BD000000540040EC040020BC7D7010F6
:1050900010B5124810490160FF210531416001211E
:1050A000C90381600F210902C16001224261002110
:1050B000016152028261016210224162C261816219
:1050C00007220163C2624163FEF75EF9002801D046
:1050D000FCF73EFC10BD0000003001403805002008
:1050E00030B59BB0002419941A9417941894149412
:1050F00015941C2168461694FBF7E1F8342107A8A3
:10510000FBF7DDF84648474D11C52020286046488A
:10511000AC6068600120E860802028614148083D5B
:10512000FEF7E0FC002801D0FCF712FC0120000390
:10513000179017A93B48FEF763FD002801D0FCF744
:1051400007FC3848FEF7AAFF002801D0FCF700FC56
:105150003448FEF7E8FE002801D0FCF7F9FB0720F1
:1051600000051590149414A916942E48FEF784FC9B
:10517000002801D0FCF7ECFB60200594019400901E
:105180000294039404940022694606942548FEF78D
:10519000F1FE002801D0FCF7DBFB04226946214820
:1051A000FEF7E8FE002801D0FCF7D2FB0822694692
:1051B0001C48FEF7DFFE002801D0FCF7C9FB3020B9
:1051C000009019480C22001F019069461548FEF70F
:1051D00073FE002801D0FCF7BBFB2868C1690122DF
:1051E000D2021143C161079490000C900894099475
:1051F0000B9400030A940D940E9410900F94119444
:10520000129407A913940748FEF7E0FB002801D089
:10521000FCF79EFB0348FEF727FE1BB030BD0000E5
:10522000002C01409C050020FF04000010B588B050
:1052300000240094019401211548029403940494DD
:1052400005948907069401603F21846041600461F0
:1052500010498461C160FEF745FC002801D0FCF7CD
:1052600077FB01200003009069460948FEF7C8FC5F
:10527000002801D0FCF76CFB049404A904480694B0
:10528000FEF7FAFB002801D0FCF762FB08B010BD66
:10529000E8050020E703000010B518481649016032
:1052A000E1214902416000218160C16001618161A9
:1052B000C16101620C22416242618162FFF724F800
:1052C000002801D0FCF744FB00210C48FEF7F9FF51
:1052D000002801D0FCF73CFB00210848FEF7CDFF79
:1052E000002801D0FCF734FB0448FEF7A8FF002893
:1052F00001D0FCF72DFB10BD003801403406002022
:1053000010B5084C064820600548223000F058F9D6
:105310004004400CA06000206060E06010BD000010
:10532000FF7F00008800002010B50F4CA168E068E6
:1053300002F03AFA01D2A068E0600C49A068086166
:105340000B4908610B490A780B49012A00D0E06932
:1053500008610A49A06908610020206001224021FB
:105360000748FDF73BF810BD68000020C406002088
:10537000E8060020640000200C0700203007002011
:105380000008005010B54200120E03D0104A106001
:105390001048016001F082F801F0F4FB0E4908604A
:1053A0003220FCF7E9FE02F07BF80C49086005208A
:1053B000FCF7E2FE02F060F8094908600949097843
:1053C000032901D108490860C820FCF7D5FE10BDAB
:1053D0003C000020680000209800002044000020CD
:1053E000380000206500002010000020FEE70000CB
:1053F00010B51A49184B7F20C0050B60486000208B
:105400008860C86048618861154AC86194690C6207
:10541000243148608860C8604861124C88610C6023
:10542000C86194690C623F2424066C398860C860A6
:10543000486188610C604B60C86193690B622431DC
:1054400048608860C8604861074B88610B60C8612C
:105450009069086210BD0000CDCCCC3D0C07002047
:1054600000E000E0000048429A99193FF3B5044675
:105470004C4883B08569206A4B4E4C4FA84201D9F5
:10548000401B02E04A49491B0818FBF7C7FE31469A
:10549000FBF7AAFD394602F02FF906464000454FBA
:1054A0002562000E03D03F200006864200DD424EFA
:1054B0002068049902F020F900906169049802F0D4
:1054C00081F805463146606802F016F90021C943AB
:1054D000FBF7A8FE294602F00FF9E16902F072F825
:1054E000054620692946784002F05EF902D2256916
:1054F0007D4005E02846216902F056F900D2256971
:1055000001956169049802F087F9A16802F0F4F846
:105510003146FBF769FD05460199009802F052F803
:10552000294602F04FF8054620692946784002F0E6
:105530003BF902D225697D4005E02846216902F049
:1055400033F900D22569E0680121C905029088423B
:1055500020DB2846A16902F05FF93146FBF744FDE4
:105560000090029902F020F9E06806D2314602F07C
:10557000C3F8A16902F026F80BE07840009902F028
:1055800013F907D23146E06802F0B6F8A16902F0DB
:1055900037F905460198A561E061049860612846E5
:1055A00005B0F0BD00E000E000001041BD378635D9
:1055B000FFFFFF00000000806F12833A7047000079
:1055C0007CB515496846818001240525E4032D0733
:1055D000002221462846FCF701FF7D26F6003346CF
:1055E000012201A90D48FEF72BF800BF00BF00BF44
:1055F00000BF00BF00BF00BF00BF334602226946A4
:105600000648FDF769FF012221462846FCF7E6FE21
:10561000684600887CBD000021800000380500201D
:10562000F7B504464068FF26053682B01546B042FD
:105630000CD10121A068C903884202D049118842D7
:1056400004D1206801684022914301600095002246
:1056500080212046039B00F0B1F82027002813D1B9
:105660006068B04216D1A068B902884202D04911E0
:1056700088420FD103210095002249022046039B56
:1056800000F030F8002805D0206E38432066032053
:1056900005B0F0BD0020FBE7F8B50F460B461546F8
:1056A0000092032104460022C90200F01BF82026C4
:1056B000002812D13B46002280212046009500F0B0
:1056C0007DF8002809D103213B46002249022046EB
:1056D000009500F007F8002803D0206E30432066C4
:1056E0000320F8BDFFB585B00E460446002069468C
:1056F0000E9D17460871FCF777FE411B0898451A66
:10570000FCF772FE0390206823210C3002902A4897
:1057100000684843000D684346E00320400286428B
:1057200006D1002F04D102980178684601710079F2
:105730000898401C39D0FCF757FE0399401AA8423C
:1057400005D2002D03D0009800282BD02BE0206834
:105750004168E022914341606068C11FFD390CD16E
:105760000121A068C903884202D04911884204D1AE
:10577000206801684022914301600120A16A400332
:10578000814207D121680A6882430A6021680A6859
:1057900002430A6001204034607700202077032014
:1057A00009B0F0BD0025401E0090206880683040A0
:1057B000B842B2D10020F3E730000020FFB581B03D
:1057C0001E4604460A9DFCF70FFE401B351AFCF7E7
:1057D0000BFE0746264800684001000D684339E08B
:1057E000701C38D0FCF700FEC01BA84205D2002D6B
:1057F00003D0009800282BD02BE020684168E022DD
:10580000914341606068C11FFD390CD10121A0683E
:10581000C903884202D04911884204D12068016836
:105820004022914301600120A16A4003814207D1D7
:1058300021680A6882430A6021680A6802430A6094
:1058400001204034607700202077032005B0F0BDB0
:105850000025401E0090206881680298884305D08A
:10586000002103988142BBD10020EFE70121F8E736
:1058700030000020704710B5FDF718F910BD30B5A5
:1058800093B038216846FAF71AFD002501200E95DD
:105890000F95109540021195FDF77EF90224E00165
:1058A000039000944020059008200A9080030B90FC
:1058B000079400020C900894000104950D9009953E
:1058C0006846FDF76DFB002801D072B6FEE70720A1
:1058D0000EA931C102210EA81195FDF75BFA00282F
:1058E00001D072B6FEE713B030BD704710B5024864
:1058F000FEF7F8F910BD0000E8050020F0B50268D9
:105900001A4B0124A4071A4D984203D0A04201D09B
:10591000A84203D17026B2434E683243154E164F4B
:1059200098420AD0A04208D0A84206D0134CA04208
:1059300003D0B04201D0B84204D103242402A243D0
:10594000CC6822438024A2434C69224302608A68C7
:10595000C2620A688262984203D0B04201D0B84263
:1059600001D10969016301214161F0BD002C0140B1
:105970000004004000440140004801400020004075
:1059800010B5CB06DB0E0121046A99408C430462FA
:10599000016A9A401143016210BD30B58468FF2549
:1059A0002D021B021343AC430B432343836030BDE2
:1059B0008268034B1A400A4307210A4382607047FA
:1059C0008FFFCFFFF0B5026A520852000262056AEB
:1059D00043688269164C184E224092080C68920067
:1059E0001443022295438A682A43124DA84204D0E8
:1059F000B04202D0114FB84206D10827BA43CF684F
:105A00001743042297433A46A84204D0B04202D03A
:105A10000A4DA84206D103252D02AB434D691D4313
:105A20008B692B4343608461496841630262F0BD26
:105A30008FFFFEFF002C0140004401400048014060
:105A400070B5026A10239A430262046A436882694D
:105A5000164D2A4003252D02AA430D682D02154339
:105A6000202294438A6812012243114CA04208D19B
:105A70001446CA688026B443120122434024A2433C
:105A800005E00C4CA04202D00B4CA04208D10324EC
:105A9000A402A3434C69A4001C438B699B002343CD
:105AA0004360856149688163026270BDFF8FFFFEBC
:105AB000002C0140004401400048014070B5026ADA
:105AC000FF2301339A430262046A4368C269164D98
:105AD0002A4092080D689200154301225202944315
